{
  "_format": "hh-sol-artifact-1",
  "contractName": "ESkillzStraightBet",
  "sourceName": "contracts/ESkillzStraightBet.sol",
  "abi": [
    {
      "inputs": [],
      "stateMutability": "nonpayable",
      "type": "constructor"
    },
    {
      "anonymous": false,
      "inputs": [
        {
          "indexed": false,
          "internalType": "uint256",
          "name": "_game",
          "type": "uint256"
        },
        {
          "indexed": false,
          "internalType": "uint256",
          "name": "_amount",
          "type": "uint256"
        }
      ],
      "name": "BetEvent",
      "type": "event"
    },
    {
      "anonymous": false,
      "inputs": [
        {
          "indexed": true,
          "internalType": "address",
          "name": "previousOwner",
          "type": "address"
        },
        {
          "indexed": true,
          "internalType": "address",
          "name": "newOwner",
          "type": "address"
        }
      ],
      "name": "OwnershipTransferred",
      "type": "event"
    },
    {
      "inputs": [
        {
          "internalType": "uint256",
          "name": "game",
          "type": "uint256"
        },
        {
          "internalType": "uint256",
          "name": "amount",
          "type": "uint256"
        }
      ],
      "name": "bet",
      "outputs": [],
      "stateMutability": "nonpayable",
      "type": "function"
    },
    {
      "inputs": [],
      "name": "eskillz_fee",
      "outputs": [
        {
          "internalType": "uint256",
          "name": "",
          "type": "uint256"
        }
      ],
      "stateMutability": "view",
      "type": "function"
    },
    {
      "inputs": [],
      "name": "feeReceiver",
      "outputs": [
        {
          "internalType": "address",
          "name": "",
          "type": "address"
        }
      ],
      "stateMutability": "view",
      "type": "function"
    },
    {
      "inputs": [
        {
          "internalType": "uint256",
          "name": "game",
          "type": "uint256"
        }
      ],
      "name": "finishGame",
      "outputs": [
        {
          "internalType": "bool",
          "name": "",
          "type": "bool"
        }
      ],
      "stateMutability": "nonpayable",
      "type": "function"
    },
    {
      "inputs": [
        {
          "internalType": "uint256",
          "name": "",
          "type": "uint256"
        },
        {
          "internalType": "uint256",
          "name": "",
          "type": "uint256"
        }
      ],
      "name": "gamebetting",
      "outputs": [
        {
          "internalType": "address",
          "name": "player",
          "type": "address"
        },
        {
          "internalType": "uint256",
          "name": "amount",
          "type": "uint256"
        }
      ],
      "stateMutability": "view",
      "type": "function"
    },
    {
      "inputs": [
        {
          "internalType": "uint256",
          "name": "",
          "type": "uint256"
        }
      ],
      "name": "gamelist",
      "outputs": [
        {
          "internalType": "uint256",
          "name": "",
          "type": "uint256"
        }
      ],
      "stateMutability": "view",
      "type": "function"
    },
    {
      "inputs": [
        {
          "internalType": "uint256",
          "name": "game",
          "type": "uint256"
        }
      ],
      "name": "getPlayerLength",
      "outputs": [
        {
          "internalType": "uint256",
          "name": "",
          "type": "uint256"
        }
      ],
      "stateMutability": "view",
      "type": "function"
    },
    {
      "inputs": [],
      "name": "owner",
      "outputs": [
        {
          "internalType": "address",
          "name": "",
          "type": "address"
        }
      ],
      "stateMutability": "view",
      "type": "function"
    },
    {
      "inputs": [
        {
          "internalType": "uint256",
          "name": "_fee",
          "type": "uint256"
        }
      ],
      "name": "setFee",
      "outputs": [],
      "stateMutability": "nonpayable",
      "type": "function"
    },
    {
      "inputs": [
        {
          "internalType": "address",
          "name": "_address",
          "type": "address"
        }
      ],
      "name": "setFeeReceiver",
      "outputs": [],
      "stateMutability": "nonpayable",
      "type": "function"
    },
    {
      "inputs": [],
      "name": "sport",
      "outputs": [
        {
          "internalType": "contract IERC20",
          "name": "",
          "type": "address"
        }
      ],
      "stateMutability": "view",
      "type": "function"
    },
    {
      "inputs": [
        {
          "internalType": "address",
          "name": "newOwner",
          "type": "address"
        }
      ],
      "name": "transferOwnership",
      "outputs": [],
      "stateMutability": "nonpayable",
      "type": "function"
    }
  ],
  "bytecode": "0x6080604052604051806101600160405280600060ff168152602001600160ff168152602001600260ff168152602001600360ff168152602001600460ff168152602001600560ff168152602001600660ff168152602001600760ff168152602001600860ff168152602001600960ff168152602001600a60ff16815250600290600b6200008e9291906200020d565b503480156200009c57600080fd5b506000620000af6200020560201b60201c565b9050806000806101000a81548173ffffffffffffffffffffffffffffffffffffffff021916908373ffffffffffffffffffffffffffffffffffffffff1602179055508073ffffffffffffffffffffffffffffffffffffffff16600073ffffffffffffffffffffffffffffffffffffffff167f8be0079c531659141344cd1fd0a4f28419497f9722a3daafe3b4186f6b6457e060405160405180910390a350731ff9c508f4ba854cc5eeb50e0cbd6caf9cc88006600160006101000a81548173ffffffffffffffffffffffffffffffffffffffff021916908373ffffffffffffffffffffffffffffffffffffffff160217905550600560048190555073a300915690ac000e05bd5fd91f6c14ef0838727c600560006101000a81548173ffffffffffffffffffffffffffffffffffffffff021916908373ffffffffffffffffffffffffffffffffffffffff1602179055506200028c565b600033905090565b82805482825590600052602060002090810192821562000251579160200282015b8281111562000250578251829060ff169055916020019190600101906200022e565b5b50905062000260919062000264565b5090565b6200028991905b80821115620002855760008160009055506001016200026b565b5090565b90565b611450806200029c6000396000f3fe608060405234801561001057600080fd5b50600436106100b45760003560e01c8063b3f0067411610071578063b3f0067414610237578063b908619914610281578063cfe186b21461029f578063efdcd974146102e5578063f2fde38b14610329578063f696649d1461036d576100b4565b80630bb93b4b146100b95780630e93a7c2146100fb5780633f5c0d3f1461013d57806369fe0e2d146101875780636ffcc719146101b55780638da5cb5b146101ed575b600080fd5b6100e5600480360360208110156100cf57600080fd5b81019080803590602001909291905050506103ec565b6040518082815260200191505060405180910390f35b6101276004803603602081101561011157600080fd5b810190808035906020019092919050505061040c565b6040518082815260200191505060405180910390f35b61014561042d565b604051808273ffffffffffffffffffffffffffffffffffffffff1673ffffffffffffffffffffffffffffffffffffffff16815260200191505060405180910390f35b6101b36004803603602081101561019d57600080fd5b8101908080359060200190929190505050610453565b005b6101eb600480360360408110156101cb57600080fd5b810190808035906020019092919080359060200190929190505050610526565b005b6101f5610914565b604051808273ffffffffffffffffffffffffffffffffffffffff1673ffffffffffffffffffffffffffffffffffffffff16815260200191505060405180910390f35b61023f61093d565b604051808273ffffffffffffffffffffffffffffffffffffffff1673ffffffffffffffffffffffffffffffffffffffff16815260200191505060405180910390f35b610289610963565b6040518082815260200191505060405180910390f35b6102cb600480360360208110156102b557600080fd5b8101908080359060200190929190505050610969565b604051808215151515815260200191505060405180910390f35b610327600480360360208110156102fb57600080fd5b81019080803573ffffffffffffffffffffffffffffffffffffffff169060200190929190505050610c7e565b005b61036b6004803603602081101561033f57600080fd5b81019080803573ffffffffffffffffffffffffffffffffffffffff169060200190929190505050610d8b565b005b6103a36004803603604081101561038357600080fd5b810190808035906020019092919080359060200190929190505050610f98565b604051808373ffffffffffffffffffffffffffffffffffffffff1673ffffffffffffffffffffffffffffffffffffffff1681526020018281526020019250505060405180910390f35b600060036000838152602001908152602001600020805490509050919050565b6002818154811061041957fe5b906000526020600020016000915090505481565b600160009054906101000a900473ffffffffffffffffffffffffffffffffffffffff1681565b61045b610ff6565b73ffffffffffffffffffffffffffffffffffffffff166000809054906101000a900473ffffffffffffffffffffffffffffffffffffffff1673ffffffffffffffffffffffffffffffffffffffff161461051c576040517f08c379a00000000000000000000000000000000000000000000000000000000081526004018080602001828103825260208152602001807f4f776e61626c653a2063616c6c6572206973206e6f7420746865206f776e657281525060200191505060405180910390fd5b8060048190555050565b6000811161059c576040517f08c379a00000000000000000000000000000000000000000000000000000000081526004018080602001828103825260118152602001807f596f752063616e206e6f7420626574203000000000000000000000000000000081525060200191505060405180910390fd5b600260036000848152602001908152602001600020805490501061060b576040517f08c379a00000000000000000000000000000000000000000000000000000000081526004018080602001828103825260278152602001806113b26027913960400191505060405180910390fd5b600160009054906101000a900473ffffffffffffffffffffffffffffffffffffffff1673ffffffffffffffffffffffffffffffffffffffff166323b872dd3330633b9aca0085026040518463ffffffff1660e01b8152600401808473ffffffffffffffffffffffffffffffffffffffff1673ffffffffffffffffffffffffffffffffffffffff1681526020018373ffffffffffffffffffffffffffffffffffffffff1673ffffffffffffffffffffffffffffffffffffffff1681526020018281526020019350505050602060405180830381600087803b1580156106ee57600080fd5b505af1158015610702573d6000803e3d6000fd5b505050506040513d602081101561071857600080fd5b8101908080519060200190929190505050506003600083815260200190815260200160002060405180604001604052803373ffffffffffffffffffffffffffffffffffffffff16815260200183815250908060018154018082558091505060019003906000526020600020906002020160009091909190915060008201518160000160006101000a81548173ffffffffffffffffffffffffffffffffffffffff021916908373ffffffffffffffffffffffffffffffffffffffff160217905550602082015181600101555050600160009054906101000a900473ffffffffffffffffffffffffffffffffffffffff1673ffffffffffffffffffffffffffffffffffffffff1663095ea7b33367016345785d8a00006040518363ffffffff1660e01b8152600401808373ffffffffffffffffffffffffffffffffffffffff1673ffffffffffffffffffffffffffffffffffffffff16815260200182815260200192505050602060405180830381600087803b15801561089557600080fd5b505af11580156108a9573d6000803e3d6000fd5b505050506040513d60208110156108bf57600080fd5b8101908080519060200190929190505050507fb2e369502d9bd83f41ab63f1677a14cd6ec5f6f31a885b67989df4f1b35703698282604051808381526020018281526020019250505060405180910390a15050565b60008060009054906101000a900473ffffffffffffffffffffffffffffffffffffffff16905090565b600560009054906101000a900473ffffffffffffffffffffffffffffffffffffffff1681565b60045481565b6000806109766002610ffe565b905060008090506000806109898661109a565b915091506001841415610b085760019250600160009054906101000a900473ffffffffffffffffffffffffffffffffffffffff1673ffffffffffffffffffffffffffffffffffffffff166323b872dd30600360008a81526020019081526020016000206000815481106109f857fe5b906000526020600020906002020160000160009054906101000a900473ffffffffffffffffffffffffffffffffffffffff16856040518463ffffffff1660e01b8152600401808473ffffffffffffffffffffffffffffffffffffffff1673ffffffffffffffffffffffffffffffffffffffff1681526020018373ffffffffffffffffffffffffffffffffffffffff1673ffffffffffffffffffffffffffffffffffffffff1681526020018281526020019350505050602060405180830381600087803b158015610ac757600080fd5b505af1158015610adb573d6000803e3d6000fd5b505050506040513d6020811015610af157600080fd5b810190808051906020019092919050505050610c72565b600160009054906101000a900473ffffffffffffffffffffffffffffffffffffffff1673ffffffffffffffffffffffffffffffffffffffff166323b872dd30600360008a8152602001908152602001600020600181548110610b6657fe5b906000526020600020906002020160000160009054906101000a900473ffffffffffffffffffffffffffffffffffffffff16846040518463ffffffff1660e01b8152600401808473ffffffffffffffffffffffffffffffffffffffff1673ffffffffffffffffffffffffffffffffffffffff1681526020018373ffffffffffffffffffffffffffffffffffffffff1673ffffffffffffffffffffffffffffffffffffffff1681526020018281526020019350505050602060405180830381600087803b158015610c3557600080fd5b505af1158015610c49573d6000803e3d6000fd5b505050506040513d6020811015610c5f57600080fd5b8101908080519060200190929190505050505b82945050505050919050565b610c86610ff6565b73ffffffffffffffffffffffffffffffffffffffff166000809054906101000a900473ffffffffffffffffffffffffffffffffffffffff1673ffffffffffffffffffffffffffffffffffffffff1614610d47576040517f08c379a00000000000000000000000000000000000000000000000000000000081526004018080602001828103825260208152602001807f4f776e61626c653a2063616c6c6572206973206e6f7420746865206f776e657281525060200191505060405180910390fd5b80600560006101000a81548173ffffffffffffffffffffffffffffffffffffffff021916908373ffffffffffffffffffffffffffffffffffffffff16021790555050565b610d93610ff6565b73ffffffffffffffffffffffffffffffffffffffff166000809054906101000a900473ffffffffffffffffffffffffffffffffffffffff1673ffffffffffffffffffffffffffffffffffffffff1614610e54576040517f08c379a00000000000000000000000000000000000000000000000000000000081526004018080602001828103825260208152602001807f4f776e61626c653a2063616c6c6572206973206e6f7420746865206f776e657281525060200191505060405180910390fd5b600073ffffffffffffffffffffffffffffffffffffffff168173ffffffffffffffffffffffffffffffffffffffff161415610eda576040517f08c379a000000000000000000000000000000000000000000000000000000000815260040180806020018281038252602681526020018061138c6026913960400191505060405180910390fd5b8073ffffffffffffffffffffffffffffffffffffffff166000809054906101000a900473ffffffffffffffffffffffffffffffffffffffff1673ffffffffffffffffffffffffffffffffffffffff167f8be0079c531659141344cd1fd0a4f28419497f9722a3daafe3b4186f6b6457e060405160405180910390a3806000806101000a81548173ffffffffffffffffffffffffffffffffffffffff021916908373ffffffffffffffffffffffffffffffffffffffff16021790555050565b60036020528160005260406000208181548110610fb157fe5b9060005260206000209060020201600091509150508060000160009054906101000a900473ffffffffffffffffffffffffffffffffffffffff16908060010154905082565b600033905090565b6000808211611058576040517f08c379a00000000000000000000000000000000000000000000000000000000081526004018080602001828103825260218152602001806113fa6021913960400191505060405180910390fd5b81424460405160200180838152602001828152602001925050506040516020818303038152906040528051906020012060001c8161109257fe5b069050919050565b60008060006111426064611134600454606403611126633b9aca00600360008b81526020019081526020016000206001815481106110d457fe5b906000526020600020906002020160010154600360008c815260200190815260200160002060008154811061110557fe5b906000526020600020906002020160010154016111f590919063ffffffff16565b6111f590919063ffffffff16565b61127b90919063ffffffff16565b905060006111e660646111d86004546111ca633b9aca00600360008c815260200190815260200160002060018154811061117857fe5b906000526020600020906002020160010154600360008d81526020019081526020016000206000815481106111a957fe5b906000526020600020906002020160010154016111f590919063ffffffff16565b6111f590919063ffffffff16565b61127b90919063ffffffff16565b90508181935093505050915091565b6000808314156112085760009050611275565b600082840290508284828161121957fe5b0414611270576040517f08c379a00000000000000000000000000000000000000000000000000000000081526004018080602001828103825260218152602001806113d96021913960400191505060405180910390fd5b809150505b92915050565b60006112bd83836040518060400160405280601a81526020017f536166654d6174683a206469766973696f6e206279207a65726f0000000000008152506112c5565b905092915050565b60008083118290611371576040517f08c379a00000000000000000000000000000000000000000000000000000000081526004018080602001828103825283818151815260200191508051906020019080838360005b8381101561133657808201518184015260208101905061131b565b50505050905090810190601f1680156113635780820380516001836020036101000a031916815260200191505b509250505060405180910390fd5b50600083858161137d57fe5b04905080915050939250505056fe4f776e61626c653a206e6577206f776e657220697320746865207a65726f206164647265737354776f20706c617965727320616c72656164792061726520696e20746869732062657474696e67536166654d6174683a206d756c7469706c69636174696f6e206f766572666c6f776d61784e756d2073686f756c6420626520626967676572207468616e207a65726fa264697066735822122072ef0d3dcb11476daf357a9ee66f0b8fdbcf92c27d0962e8f1b61f33fb99f5f764736f6c63430006060033",
  "linkReferences": {},
  "deployedLinkReferences": {}
}