{
  "_format": "hh-sol-artifact-1",
  "contractName": "SPORT",
  "sourceName": "contracts/SPORT.sol",
  "abi": [
    {
      "inputs": [
        {
          "internalType": "address",
          "name": "_dexRouter",
          "type": "address"
        }
      ],
      "stateMutability": "nonpayable",
      "type": "constructor"
    },
    {
      "anonymous": false,
      "inputs": [
        {
          "indexed": true,
          "internalType": "address",
          "name": "owner",
          "type": "address"
        },
        {
          "indexed": true,
          "internalType": "address",
          "name": "spender",
          "type": "address"
        },
        {
          "indexed": false,
          "internalType": "uint256",
          "name": "value",
          "type": "uint256"
        }
      ],
      "name": "Approval",
      "type": "event"
    },
    {
      "anonymous": false,
      "inputs": [
        {
          "indexed": false,
          "internalType": "address",
          "name": "owner",
          "type": "address"
        }
      ],
      "name": "OwnershipTransferred",
      "type": "event"
    },
    {
      "anonymous": false,
      "inputs": [
        {
          "indexed": true,
          "internalType": "address",
          "name": "from",
          "type": "address"
        },
        {
          "indexed": true,
          "internalType": "address",
          "name": "to",
          "type": "address"
        },
        {
          "indexed": false,
          "internalType": "uint256",
          "name": "value",
          "type": "uint256"
        }
      ],
      "name": "Transfer",
      "type": "event"
    },
    {
      "inputs": [],
      "name": "MATIC",
      "outputs": [
        {
          "internalType": "address",
          "name": "",
          "type": "address"
        }
      ],
      "stateMutability": "view",
      "type": "function"
    },
    {
      "inputs": [
        {
          "internalType": "address",
          "name": "holder",
          "type": "address"
        },
        {
          "internalType": "address",
          "name": "spender",
          "type": "address"
        }
      ],
      "name": "allowance",
      "outputs": [
        {
          "internalType": "uint256",
          "name": "",
          "type": "uint256"
        }
      ],
      "stateMutability": "view",
      "type": "function"
    },
    {
      "inputs": [
        {
          "internalType": "address",
          "name": "spender",
          "type": "address"
        },
        {
          "internalType": "uint256",
          "name": "amount",
          "type": "uint256"
        }
      ],
      "name": "approve",
      "outputs": [
        {
          "internalType": "bool",
          "name": "",
          "type": "bool"
        }
      ],
      "stateMutability": "nonpayable",
      "type": "function"
    },
    {
      "inputs": [
        {
          "internalType": "address",
          "name": "spender",
          "type": "address"
        }
      ],
      "name": "approveMax",
      "outputs": [
        {
          "internalType": "bool",
          "name": "",
          "type": "bool"
        }
      ],
      "stateMutability": "nonpayable",
      "type": "function"
    },
    {
      "inputs": [
        {
          "internalType": "address",
          "name": "adr",
          "type": "address"
        }
      ],
      "name": "authorize",
      "outputs": [],
      "stateMutability": "nonpayable",
      "type": "function"
    },
    {
      "inputs": [
        {
          "internalType": "address",
          "name": "account",
          "type": "address"
        }
      ],
      "name": "balanceOf",
      "outputs": [
        {
          "internalType": "uint256",
          "name": "",
          "type": "uint256"
        }
      ],
      "stateMutability": "view",
      "type": "function"
    },
    {
      "inputs": [],
      "name": "decimals",
      "outputs": [
        {
          "internalType": "uint8",
          "name": "",
          "type": "uint8"
        }
      ],
      "stateMutability": "pure",
      "type": "function"
    },
    {
      "inputs": [],
      "name": "distributor",
      "outputs": [
        {
          "internalType": "address",
          "name": "",
          "type": "address"
        }
      ],
      "stateMutability": "view",
      "type": "function"
    },
    {
      "inputs": [],
      "name": "getCirculatingSupply",
      "outputs": [
        {
          "internalType": "uint256",
          "name": "",
          "type": "uint256"
        }
      ],
      "stateMutability": "view",
      "type": "function"
    },
    {
      "inputs": [],
      "name": "getOwner",
      "outputs": [
        {
          "internalType": "address",
          "name": "",
          "type": "address"
        }
      ],
      "stateMutability": "view",
      "type": "function"
    },
    {
      "inputs": [
        {
          "internalType": "address",
          "name": "adr",
          "type": "address"
        }
      ],
      "name": "isAuthorized",
      "outputs": [
        {
          "internalType": "bool",
          "name": "",
          "type": "bool"
        }
      ],
      "stateMutability": "view",
      "type": "function"
    },
    {
      "inputs": [
        {
          "internalType": "address",
          "name": "account",
          "type": "address"
        }
      ],
      "name": "isOwner",
      "outputs": [
        {
          "internalType": "bool",
          "name": "",
          "type": "bool"
        }
      ],
      "stateMutability": "view",
      "type": "function"
    },
    {
      "inputs": [
        {
          "internalType": "uint256",
          "name": "amount",
          "type": "uint256"
        }
      ],
      "name": "mintMore",
      "outputs": [],
      "stateMutability": "nonpayable",
      "type": "function"
    },
    {
      "inputs": [],
      "name": "name",
      "outputs": [
        {
          "internalType": "string",
          "name": "",
          "type": "string"
        }
      ],
      "stateMutability": "pure",
      "type": "function"
    },
    {
      "inputs": [],
      "name": "pair",
      "outputs": [
        {
          "internalType": "address",
          "name": "",
          "type": "address"
        }
      ],
      "stateMutability": "view",
      "type": "function"
    },
    {
      "inputs": [],
      "name": "router",
      "outputs": [
        {
          "internalType": "contract IDEXRouter",
          "name": "",
          "type": "address"
        }
      ],
      "stateMutability": "view",
      "type": "function"
    },
    {
      "inputs": [
        {
          "internalType": "address",
          "name": "_address",
          "type": "address"
        }
      ],
      "name": "setDistributorAddr",
      "outputs": [],
      "stateMutability": "nonpayable",
      "type": "function"
    },
    {
      "inputs": [
        {
          "internalType": "uint256",
          "name": "_distributionFee",
          "type": "uint256"
        },
        {
          "internalType": "uint256",
          "name": "_feeDenominator",
          "type": "uint256"
        }
      ],
      "name": "setFees",
      "outputs": [],
      "stateMutability": "nonpayable",
      "type": "function"
    },
    {
      "inputs": [],
      "name": "symbol",
      "outputs": [
        {
          "internalType": "string",
          "name": "",
          "type": "string"
        }
      ],
      "stateMutability": "pure",
      "type": "function"
    },
    {
      "inputs": [],
      "name": "totalSupply",
      "outputs": [
        {
          "internalType": "uint256",
          "name": "",
          "type": "uint256"
        }
      ],
      "stateMutability": "view",
      "type": "function"
    },
    {
      "inputs": [
        {
          "internalType": "address",
          "name": "recipient",
          "type": "address"
        },
        {
          "internalType": "uint256",
          "name": "amount",
          "type": "uint256"
        }
      ],
      "name": "transfer",
      "outputs": [
        {
          "internalType": "bool",
          "name": "",
          "type": "bool"
        }
      ],
      "stateMutability": "nonpayable",
      "type": "function"
    },
    {
      "inputs": [
        {
          "internalType": "address",
          "name": "sender",
          "type": "address"
        },
        {
          "internalType": "address",
          "name": "recipient",
          "type": "address"
        },
        {
          "internalType": "uint256",
          "name": "amount",
          "type": "uint256"
        }
      ],
      "name": "transferFrom",
      "outputs": [
        {
          "internalType": "bool",
          "name": "",
          "type": "bool"
        }
      ],
      "stateMutability": "nonpayable",
      "type": "function"
    },
    {
      "inputs": [
        {
          "internalType": "address payable",
          "name": "adr",
          "type": "address"
        }
      ],
      "name": "transferOwnership",
      "outputs": [],
      "stateMutability": "nonpayable",
      "type": "function"
    },
    {
      "inputs": [
        {
          "internalType": "address",
          "name": "adr",
          "type": "address"
        }
      ],
      "name": "unauthorize",
      "outputs": [],
      "stateMutability": "nonpayable",
      "type": "function"
    },
    {
      "stateMutability": "payable",
      "type": "receive"
    }
  ],
  "bytecode": "0x608060405273c778417e063141139fce010982780140aa0cd5ab600260006101000a81548173ffffffffffffffffffffffffffffffffffffffff021916908373ffffffffffffffffffffffffffffffffffffffff16021790555061dead600360006101000a81548173ffffffffffffffffffffffffffffffffffffffff021916908373ffffffffffffffffffffffffffffffffffffffff1602179055506000600460006101000a81548173ffffffffffffffffffffffffffffffffffffffff021916908373ffffffffffffffffffffffffffffffffffffffff1602179055506009600a620000ee919062000843565b631dcd6500620000ff919062000980565b6005556103e8600955612710600a553480156200011b57600080fd5b50604051620027de380380620027de83398181016040528101906200014191906200074a565b33806000806101000a81548173ffffffffffffffffffffffffffffffffffffffff021916908373ffffffffffffffffffffffffffffffffffffffff16021790555060018060008373ffffffffffffffffffffffffffffffffffffffff1673ffffffffffffffffffffffffffffffffffffffff16815260200190815260200160002060006101000a81548160ff0219169083151502179055505080600b60006101000a81548173ffffffffffffffffffffffffffffffffffffffff021916908373ffffffffffffffffffffffffffffffffffffffff160217905550600b60009054906101000a900473ffffffffffffffffffffffffffffffffffffffff1673ffffffffffffffffffffffffffffffffffffffff1663c45a01556040518163ffffffff1660e01b815260040160206040518083038186803b1580156200028457600080fd5b505afa15801562000299573d6000803e3d6000fd5b505050506040513d601f19601f82011682018060405250810190620002bf91906200074a565b73ffffffffffffffffffffffffffffffffffffffff1663c9c65396600260009054906101000a900473ffffffffffffffffffffffffffffffffffffffff16306040518363ffffffff1660e01b81526004016200031d9291906200079e565b602060405180830381600087803b1580156200033857600080fd5b505af11580156200034d573d6000803e3d6000fd5b505050506040513d601f19601f820116820180604052508101906200037391906200074a565b600c60006101000a81548173ffffffffffffffffffffffffffffffffffffffff021916908373ffffffffffffffffffffffffffffffffffffffff160217905550600554600760003073ffffffffffffffffffffffffffffffffffffffff1673ffffffffffffffffffffffffffffffffffffffff1681526020019081526020016000206000600b60009054906101000a900473ffffffffffffffffffffffffffffffffffffffff1673ffffffffffffffffffffffffffffffffffffffff1673ffffffffffffffffffffffffffffffffffffffff16815260200190815260200160002081905550600b60009054906101000a900473ffffffffffffffffffffffffffffffffffffffff1673ffffffffffffffffffffffffffffffffffffffff1663ad5c46486040518163ffffffff1660e01b815260040160206040518083038186803b158015620004c157600080fd5b505afa158015620004d6573d6000803e3d6000fd5b505050506040513d601f19601f82011682018060405250810190620004fc91906200074a565b600260006101000a81548173ffffffffffffffffffffffffffffffffffffffff021916908373ffffffffffffffffffffffffffffffffffffffff16021790555062000550816005546200063f60201b60201c565b5062000587600c60009054906101000a900473ffffffffffffffffffffffffffffffffffffffff166005546200063f60201b60201c565b50600554600660003373ffffffffffffffffffffffffffffffffffffffff1673ffffffffffffffffffffffffffffffffffffffff168152602001908152602001600020819055503373ffffffffffffffffffffffffffffffffffffffff16600073ffffffffffffffffffffffffffffffffffffffff167fddf252ad1be2c89b69c2b068fc378daa952ba7f163c4a11628f55a4df523b3ef600554604051620006309190620007cb565b60405180910390a35062000a87565b600081600760003373ffffffffffffffffffffffffffffffffffffffff1673ffffffffffffffffffffffffffffffffffffffff16815260200190815260200160002060008573ffffffffffffffffffffffffffffffffffffffff1673ffffffffffffffffffffffffffffffffffffffff168152602001908152602001600020819055508273ffffffffffffffffffffffffffffffffffffffff163373ffffffffffffffffffffffffffffffffffffffff167f8c5be1e5ebec7d5bd14f71427d1e84f3dd0314c0f7b2291e5b200ac8c7c3b92584604051620007219190620007cb565b60405180910390a36001905092915050565b600081519050620007448162000a6d565b92915050565b60006020828403121562000763576200076262000a5b565b5b6000620007738482850162000733565b91505092915050565b6200078781620009e1565b82525050565b620007988162000a15565b82525050565b6000604082019050620007b560008301856200077c565b620007c460208301846200077c565b9392505050565b6000602082019050620007e260008301846200078d565b92915050565b6000808291508390505b60018511156200083a5780860481111562000812576200081162000a2c565b5b6001851615620008225780820291505b8081029050620008328562000a60565b9450620007f2565b94509492505050565b6000620008508262000a15565b91506200085d8362000a1f565b92506200088c7fffffffffffffffffffffffffffffffffffffffffffffffffffffffffffffffff848462000894565b905092915050565b600082620008a6576001905062000979565b81620008b6576000905062000979565b8160018114620008cf5760028114620008da5762000910565b600191505062000979565b60ff841115620008ef57620008ee62000a2c565b5b8360020a91508482111562000909576200090862000a2c565b5b5062000979565b5060208310610133831016604e8410600b84101617156200094a5782820a90508381111562000944576200094362000a2c565b5b62000979565b620009598484846001620007e8565b9250905081840481111562000973576200097262000a2c565b5b81810290505b9392505050565b60006200098d8262000a15565b91506200099a8362000a15565b9250817fffffffffffffffffffffffffffffffffffffffffffffffffffffffffffffffff0483118215151615620009d657620009d562000a2c565b5b828202905092915050565b6000620009ee82620009f5565b9050919050565b600073ffffffffffffffffffffffffffffffffffffffff82169050919050565b6000819050919050565b600060ff82169050919050565b7f4e487b7100000000000000000000000000000000000000000000000000000000600052601160045260246000fd5b600080fd5b60008160011c9050919050565b62000a7881620009e1565b811462000a8457600080fd5b50565b611d478062000a976000396000f3fe60806040526004361061014f5760003560e01c8063893d20e8116100b6578063dd62ed3e1161006f578063dd62ed3e146104c7578063e5248eab14610504578063f0b37c041461052d578063f2fde38b14610556578063f887ea401461057f578063fe9fbb80146105aa57610156565b8063893d20e8146103b557806395d89b41146103e0578063a8aa1b311461040b578063a9059cbb14610436578063b6a5d7de14610473578063bfe109281461049c57610156565b80632b112e49116101085780632b112e491461027f5780632f54bf6e146102aa578063313ce567146102e7578063571ac8b0146103125780636f8aba4c1461034f57806370a082311461037857610156565b806306fdde031461015b578063095ea7b3146101865780630b78f9c0146101c357806315b550d6146101ec57806318160ddd1461021757806323b872dd1461024257610156565b3661015657005b600080fd5b34801561016757600080fd5b506101706105e7565b60405161017d91906118da565b60405180910390f35b34801561019257600080fd5b506101ad60048036038101906101a891906116c5565b610624565b6040516101ba91906118a4565b60405180910390f35b3480156101cf57600080fd5b506101ea60048036038101906101e59190611732565b610716565b005b3480156101f857600080fd5b5061020161078c565b60405161020e919061186e565b60405180910390f35b34801561022357600080fd5b5061022c6107b2565b604051610239919061195c565b60405180910390f35b34801561024e57600080fd5b5061026960048036038101906102649190611672565b6107bc565b60405161027691906118a4565b60405180910390f35b34801561028b57600080fd5b5061029461099e565b6040516102a1919061195c565b60405180910390f35b3480156102b657600080fd5b506102d160048036038101906102cc91906115d8565b610a20565b6040516102de91906118a4565b60405180910390f35b3480156102f357600080fd5b506102fc610a79565b6040516103099190611977565b60405180910390f35b34801561031e57600080fd5b50610339600480360381019061033491906115d8565b610a82565b60405161034691906118a4565b60405180910390f35b34801561035b57600080fd5b5061037660048036038101906103719190611705565b610a97565b005b34801561038457600080fd5b5061039f600480360381019061039a91906115d8565b610c20565b6040516103ac919061195c565b60405180910390f35b3480156103c157600080fd5b506103ca610c69565b6040516103d7919061186e565b60405180910390f35b3480156103ec57600080fd5b506103f5610c92565b60405161040291906118da565b60405180910390f35b34801561041757600080fd5b50610420610ccf565b60405161042d919061186e565b60405180910390f35b34801561044257600080fd5b5061045d600480360381019061045891906116c5565b610cf5565b60405161046a91906118a4565b60405180910390f35b34801561047f57600080fd5b5061049a600480360381019061049591906115d8565b610d0a565b005b3480156104a857600080fd5b506104b1610dac565b6040516104be919061186e565b60405180910390f35b3480156104d357600080fd5b506104ee60048036038101906104e99190611632565b610dd2565b6040516104fb919061195c565b60405180910390f35b34801561051057600080fd5b5061052b600480360381019061052691906115d8565b610e59565b005b34801561053957600080fd5b50610554600480360381019061054f91906115d8565b610ee5565b005b34801561056257600080fd5b5061057d60048036038101906105789190611605565b610f88565b005b34801561058b57600080fd5b506105946110a1565b6040516105a191906118bf565b60405180910390f35b3480156105b657600080fd5b506105d160048036038101906105cc91906115d8565b6110c7565b6040516105de91906118a4565b60405180910390f35b60606040518060400160405280600581526020017f5350524f54000000000000000000000000000000000000000000000000000000815250905090565b600081600760003373ffffffffffffffffffffffffffffffffffffffff1673ffffffffffffffffffffffffffffffffffffffff16815260200190815260200160002060008573ffffffffffffffffffffffffffffffffffffffff1673ffffffffffffffffffffffffffffffffffffffff168152602001908152602001600020819055508273ffffffffffffffffffffffffffffffffffffffff163373ffffffffffffffffffffffffffffffffffffffff167f8c5be1e5ebec7d5bd14f71427d1e84f3dd0314c0f7b2291e5b200ac8c7c3b92584604051610704919061195c565b60405180910390a36001905092915050565b61071f336110c7565b61075e576040517f08c379a00000000000000000000000000000000000000000000000000000000081526004016107559061193c565b60405180910390fd5b8160098190555080600a819055506004600a5461077b9190611a04565b6009541061078857600080fd5b5050565b600260009054906101000a900473ffffffffffffffffffffffffffffffffffffffff1681565b6000600554905090565b6000600554600760008673ffffffffffffffffffffffffffffffffffffffff1673ffffffffffffffffffffffffffffffffffffffff16815260200190815260200160002060003373ffffffffffffffffffffffffffffffffffffffff1673ffffffffffffffffffffffffffffffffffffffff168152602001908152602001600020541461098a57610909826040518060400160405280601681526020017f496e73756666696369656e7420416c6c6f77616e636500000000000000000000815250600760008873ffffffffffffffffffffffffffffffffffffffff1673ffffffffffffffffffffffffffffffffffffffff16815260200190815260200160002060003373ffffffffffffffffffffffffffffffffffffffff1673ffffffffffffffffffffffffffffffffffffffff1681526020019081526020016000205461111d9092919063ffffffff16565b600760008673ffffffffffffffffffffffffffffffffffffffff1673ffffffffffffffffffffffffffffffffffffffff16815260200190815260200160002060003373ffffffffffffffffffffffffffffffffffffffff1673ffffffffffffffffffffffffffffffffffffffff168152602001908152602001600020819055505b610995848484611172565b90509392505050565b6000610a1b6109ce600460009054906101000a900473ffffffffffffffffffffffffffffffffffffffff16610c20565b610a0d6109fc600360009054906101000a900473ffffffffffffffffffffffffffffffffffffffff16610c20565b60055461136e90919063ffffffff16565b61136e90919063ffffffff16565b905090565b60008060009054906101000a900473ffffffffffffffffffffffffffffffffffffffff1673ffffffffffffffffffffffffffffffffffffffff168273ffffffffffffffffffffffffffffffffffffffff16149050919050565b60006009905090565b6000610a9082600554610624565b9050919050565b610aa0336110c7565b610adf576040517f08c379a0000000000000000000000000000000000000000000000000000000008152600401610ad69061193c565b60405180910390fd5b60008111610b22576040517f08c379a0000000000000000000000000000000000000000000000000000000008152600401610b19906118fc565b60405180910390fd5b610b7481600660003373ffffffffffffffffffffffffffffffffffffffff1673ffffffffffffffffffffffffffffffffffffffff1681526020019081526020016000205461138490919063ffffffff16565b600660003373ffffffffffffffffffffffffffffffffffffffff1673ffffffffffffffffffffffffffffffffffffffff168152602001908152602001600020819055503373ffffffffffffffffffffffffffffffffffffffff16600073ffffffffffffffffffffffffffffffffffffffff167fddf252ad1be2c89b69c2b068fc378daa952ba7f163c4a11628f55a4df523b3ef83604051610c15919061195c565b60405180910390a350565b6000600660008373ffffffffffffffffffffffffffffffffffffffff1673ffffffffffffffffffffffffffffffffffffffff168152602001908152602001600020549050919050565b60008060009054906101000a900473ffffffffffffffffffffffffffffffffffffffff16905090565b60606040518060400160405280600581526020017f53504f5254000000000000000000000000000000000000000000000000000000815250905090565b600c60009054906101000a900473ffffffffffffffffffffffffffffffffffffffff1681565b6000610d02338484611172565b905092915050565b610d1333610a20565b610d52576040517f08c379a0000000000000000000000000000000000000000000000000000000008152600401610d499061191c565b60405180910390fd5b60018060008373ffffffffffffffffffffffffffffffffffffffff1673ffffffffffffffffffffffffffffffffffffffff16815260200190815260200160002060006101000a81548160ff02191690831515021790555050565b600860009054906101000a900473ffffffffffffffffffffffffffffffffffffffff1681565b6000600760008473ffffffffffffffffffffffffffffffffffffffff1673ffffffffffffffffffffffffffffffffffffffff16815260200190815260200160002060008373ffffffffffffffffffffffffffffffffffffffff1673ffffffffffffffffffffffffffffffffffffffff16815260200190815260200160002054905092915050565b610e62336110c7565b610ea1576040517f08c379a0000000000000000000000000000000000000000000000000000000008152600401610e989061193c565b60405180910390fd5b80600860006101000a81548173ffffffffffffffffffffffffffffffffffffffff021916908373ffffffffffffffffffffffffffffffffffffffff16021790555050565b610eee33610a20565b610f2d576040517f08c379a0000000000000000000000000000000000000000000000000000000008152600401610f249061191c565b60405180910390fd5b6000600160008373ffffffffffffffffffffffffffffffffffffffff1673ffffffffffffffffffffffffffffffffffffffff16815260200190815260200160002060006101000a81548160ff02191690831515021790555050565b610f9133610a20565b610fd0576040517f08c379a0000000000000000000000000000000000000000000000000000000008152600401610fc79061191c565b60405180910390fd5b806000806101000a81548173ffffffffffffffffffffffffffffffffffffffff021916908373ffffffffffffffffffffffffffffffffffffffff16021790555060018060008373ffffffffffffffffffffffffffffffffffffffff1673ffffffffffffffffffffffffffffffffffffffff16815260200190815260200160002060006101000a81548160ff0219169083151502179055507f04dba622d284ed0014ee4b9a6a68386be1a4c08a4913ae272de89199cc686163816040516110969190611889565b60405180910390a150565b600b60009054906101000a900473ffffffffffffffffffffffffffffffffffffffff1681565b6000600160008373ffffffffffffffffffffffffffffffffffffffff1673ffffffffffffffffffffffffffffffffffffffff16815260200190815260200160002060009054906101000a900460ff169050919050565b6000838311158290611165576040517f08c379a000000000000000000000000000000000000000000000000000000000815260040161115c91906118da565b60405180910390fd5b5082840390509392505050565b6000600c60009054906101000a900473ffffffffffffffffffffffffffffffffffffffff1673ffffffffffffffffffffffffffffffffffffffff168473ffffffffffffffffffffffffffffffffffffffff16141561135a5760006111f5600a546111e76009548661139a90919063ffffffff16565b6113b090919063ffffffff16565b905061126b8160066000600860009054906101000a900473ffffffffffffffffffffffffffffffffffffffff1673ffffffffffffffffffffffffffffffffffffffff1673ffffffffffffffffffffffffffffffffffffffff1681526020019081526020016000205461138490919063ffffffff16565b60066000600860009054906101000a900473ffffffffffffffffffffffffffffffffffffffff1673ffffffffffffffffffffffffffffffffffffffff1673ffffffffffffffffffffffffffffffffffffffff16815260200190815260200160002081905550600860009054906101000a900473ffffffffffffffffffffffffffffffffffffffff1673ffffffffffffffffffffffffffffffffffffffff16600073ffffffffffffffffffffffffffffffffffffffff167fddf252ad1be2c89b69c2b068fc378daa952ba7f163c4a11628f55a4df523b3ef83604051611350919061195c565b60405180910390a3505b6113658484846113c6565b90509392505050565b6000818361137c9190611a8f565b905092915050565b6000818361139291906119ae565b905092915050565b600081836113a89190611a35565b905092915050565b600081836113be9190611a04565b905092915050565b6000611451826040518060400160405280601481526020017f496e73756666696369656e742042616c616e6365000000000000000000000000815250600660008873ffffffffffffffffffffffffffffffffffffffff1673ffffffffffffffffffffffffffffffffffffffff1681526020019081526020016000205461111d9092919063ffffffff16565b600660008673ffffffffffffffffffffffffffffffffffffffff1673ffffffffffffffffffffffffffffffffffffffff168152602001908152602001600020819055506114e682600660008673ffffffffffffffffffffffffffffffffffffffff1673ffffffffffffffffffffffffffffffffffffffff1681526020019081526020016000205461138490919063ffffffff16565b600660008573ffffffffffffffffffffffffffffffffffffffff1673ffffffffffffffffffffffffffffffffffffffff168152602001908152602001600020819055508273ffffffffffffffffffffffffffffffffffffffff168473ffffffffffffffffffffffffffffffffffffffff167fddf252ad1be2c89b69c2b068fc378daa952ba7f163c4a11628f55a4df523b3ef84604051611586919061195c565b60405180910390a3600190509392505050565b6000813590506115a881611ccc565b92915050565b6000813590506115bd81611ce3565b92915050565b6000813590506115d281611cfa565b92915050565b6000602082840312156115ee576115ed611c15565b5b60006115fc84828501611599565b91505092915050565b60006020828403121561161b5761161a611c15565b5b6000611629848285016115ae565b91505092915050565b6000806040838503121561164957611648611c15565b5b600061165785828601611599565b925050602061166885828601611599565b9150509250929050565b60008060006060848603121561168b5761168a611c15565b5b600061169986828701611599565b93505060206116aa86828701611599565b92505060406116bb868287016115c3565b9150509250925092565b600080604083850312156116dc576116db611c15565b5b60006116ea85828601611599565b92505060206116fb858286016115c3565b9150509250929050565b60006020828403121561171b5761171a611c15565b5b6000611729848285016115c3565b91505092915050565b6000806040838503121561174957611748611c15565b5b6000611757858286016115c3565b9250506020611768858286016115c3565b9150509250929050565b61177b81611b2a565b82525050565b61178a81611ac3565b82525050565b61179981611ae7565b82525050565b6117a881611b3c565b82525050565b60006117b982611992565b6117c3818561199d565b93506117d3818560208601611b84565b6117dc81611c1a565b840191505092915050565b60006117f460218361199d565b91506117ff82611c2b565b604082019050919050565b600061181760068361199d565b915061182282611c7a565b602082019050919050565b600061183a600b8361199d565b915061184582611ca3565b602082019050919050565b61185981611b13565b82525050565b61186881611b1d565b82525050565b60006020820190506118836000830184611781565b92915050565b600060208201905061189e6000830184611772565b92915050565b60006020820190506118b96000830184611790565b92915050565b60006020820190506118d4600083018461179f565b92915050565b600060208201905081810360008301526118f481846117ae565b905092915050565b60006020820190508181036000830152611915816117e7565b9050919050565b600060208201905081810360008301526119358161180a565b9050919050565b600060208201905081810360008301526119558161182d565b9050919050565b60006020820190506119716000830184611850565b92915050565b600060208201905061198c600083018461185f565b92915050565b600081519050919050565b600082825260208201905092915050565b60006119b982611b13565b91506119c483611b13565b9250827fffffffffffffffffffffffffffffffffffffffffffffffffffffffffffffffff038211156119f9576119f8611bb7565b5b828201905092915050565b6000611a0f82611b13565b9150611a1a83611b13565b925082611a2a57611a29611be6565b5b828204905092915050565b6000611a4082611b13565b9150611a4b83611b13565b9250817fffffffffffffffffffffffffffffffffffffffffffffffffffffffffffffffff0483118215151615611a8457611a83611bb7565b5b828202905092915050565b6000611a9a82611b13565b9150611aa583611b13565b925082821015611ab857611ab7611bb7565b5b828203905092915050565b6000611ace82611af3565b9050919050565b6000611ae082611af3565b9050919050565b60008115159050919050565b600073ffffffffffffffffffffffffffffffffffffffff82169050919050565b6000819050919050565b600060ff82169050919050565b6000611b3582611b60565b9050919050565b6000611b4782611b4e565b9050919050565b6000611b5982611af3565b9050919050565b6000611b6b82611b72565b9050919050565b6000611b7d82611af3565b9050919050565b60005b83811015611ba2578082015181840152602081019050611b87565b83811115611bb1576000848401525b50505050565b7f4e487b7100000000000000000000000000000000000000000000000000000000600052601160045260246000fd5b7f4e487b7100000000000000000000000000000000000000000000000000000000600052601260045260246000fd5b600080fd5b6000601f19601f8301169050919050565b7f416d6f756e742073686f756c6420626520626967676572207468616e207a657260008201527f6f00000000000000000000000000000000000000000000000000000000000000602082015250565b7f214f574e45520000000000000000000000000000000000000000000000000000600082015250565b7f21415554484f52495a4544000000000000000000000000000000000000000000600082015250565b611cd581611ac3565b8114611ce057600080fd5b50565b611cec81611ad5565b8114611cf757600080fd5b50565b611d0381611b13565b8114611d0e57600080fd5b5056fea26469706673582212205187a5782c59c0725ae9296aff6c4bf58dd13be37aacb9379b4217054749680264736f6c63430008050033",
  "linkReferences": {},
  "deployedLinkReferences": {}
}